:100000000C946A010C947C010C947C010C948E304D
:100010000C942B2D0C947C010C9456300C947C0188
:100020000C947C010C947C010C947C010C94822D2A
:100030000C947C010C947C010C947C010C947C014C
:100040000C94652D0C947C010C948C2F0C942C300A
:100050000C947C010C947C010C947C010C947C012C
:100060000C947C010C947C01084AD73B3BCE016E7A
:1000700084BCBFFDC12F3D6C74319ABD56833DDAFF
:100080003D00C77F11BED9E4BB4C3E916BAAAABE0E
:10009000000000803F05A84CCDB2D44EB93836A937
:1000A000020C50B9918688083CA6AAAA2ABE000074
:1000B00000803F000D0A4772626C20312E312E31D4
:1000C0004247205B27242720666F722068656C708A
:1000D0005D0D0A00244E005B4F50543A005B5645BC
:1000E000523A312E3142472E3230323430363033AC
:1000F0003A005B544C4F3A005B4739323A00333098
:10010000003238005B4700204700204D002053009C
:1001100020460020540033382E005B47433A470006
:100120005B484C503A24242024232024472024498F
:1001300020244E2024783D76616C20244E783D6C3E
:10014000696E6520244A3D6C696E652024534C50CD
:10015000202443202458202448207E2021203F2092
:100160006374726C2D785D0D0A00414C41524D3A1A
:10017000007C413A007C4F763A007C57434F3A006E
:100180007C506E3A007C46533A007C42663A007CD2
:1001900057506F733A007C4D506F733A00536C6543
:1001A000657000446F6F723A00436865636B00418D
:1001B0006C61726D00486F6D65004A6F6700486F33
:1001C0006C643A0052756E0049646C65000D0A005B
:1001D0005B5052423A006572726F723A00F0F77BE0
:1001E00043F0F77B433F55854300C01E4500C01ECA
:1001F0004500206E450055574A0055574A0055574F
:100200004A00007AC400007AC400007AC40A0000E0
:10021000FF000AD7233C6F12033B00007A44000022
:10022000000059020000C84200803E44FA00333307
:100230004B406F6B0D0A00536C656570696E67000B
:10024000526573746F72696E67207370696E646C47
:100250006500526573746F72696E672064656661CC
:10026000756C74730050676D20456E64004368655B
:10027000636B204C696D69747300436865636B2020
:10028000446F6F720044697361626C656400456E0F
:1002900061626C65640043617574696F6E3A2055E4
:1002A0006E6C6F636B656400272448277C27245895
:1002B0002720746F20756E6C6F636B0052657365D9
:1002C0007420746F20636F6E74696E7565005B4D8A
:1002D00053473A0011241FBECFEFD8E0DEBFCDBF99
:1002E00027E0A0E0B1E001C01D92A736B207E1F718
:1002F0000E94A3300C94F23A0C94000080915607AF
:10030000811102C01092610708958F929F92AF925F
:10031000BF92CF92DF92EF92FF920F931F93CF93F2
:10032000DF937C016B01DC01EC91F0E0EB5FF84FB7
:100330008081EF018D3229F52296818101E0912C97
:10034000F0E010E020E030E0A9015E01E0EDE80F10
:10035000EA3018F5FF5FF930E0F491101150A5E094
:10036000B0E00E94CB3A9B01AC01220F331F441F27
:10037000551F2E0F311D411D511D2196D5018C9108
:10038000E4CF8B3219F0219600E0D9CF22968181FB
:10039000FBCF9110F2CF1F5FF0CFEE3F29F4911009
:1003A00003C099249394E9CFFF23F9F0CA01B9015E
:1003B0000E94CA374B015C0120E030E0A9010E9495
:1003C000183781112BC0002309F445C0B7FAB09447
:1003D000B7F8B094F60180829182A282B382C550B0
:1003E000D740C150F701C083F1E08F2FDF91CF914B
:1003F0001F910F91FF90EF90DF90CF90BF90AF9043
:100400009F908F9008952AE037ED43E25CE3C501A9
:10041000B4010E947A394B015C011E5F1F3F9CF3BF
:100420001F3F59F42DEC3CEC4CEC5DE3C501B401ED
:100430000E947A394B015C01C6CF112321F220E0E2
:1004400030E040E251E4C501B4010E947A394B0129
:100450005C011150F2CFD6018D929D92AD92BC926B
:100460001397BDCF2FB7F89490911B06892B8093DB
:100470001B062FBF08952FB7F89490911A06892B69
:1004800080931A062FBF08959FB7F894809319069A
:100490009FBF08959FB7F8942091180680958223F6
:1004A000809318069FBF08952FB7F894909118066F
:1004B000892B809318062FBF08958F929F92AF9239
:1004C000BF92CF92DF92EF92FF920F931F93CF9341
:1004D000DF93E0907C06F12C6C0106E316E0D0E09F
:1004E000C0E0F60181909190A190B1906F01C70199
:1004F0000C2E02C0959587950A94E2F720E030E033
:10050000A90180FF14C0C501B4010E94183787FDFE
:100510000CC0F80164A175A186A197A19058A5010E
:1005200094010E94183787FF13C081E018C0C501ED
:10053000B4010E943A391816C4F3A5019401F801D8
:1005400064A175A186A197A10E943A3918166CF38F
:1005500021960C5F1F4FC330D10519F680E0DF9163
:10056000CF911F910F91FF90EF90DF90CF90BF90B0
:10057000AF909F908F9008958F929F92AF92BF926D
:10058000CF92DF92EF92FF920F931F93CF93DF935F
:10059000EB0126E3E22E26E0F22E8C016B018CE0CB
:1005A000C80ED11C6991799189919991F701819037
:1005B0009190A190B1907F010E94CC37A501940148
:1005C0000E942237F80161937193819391938F0177
:1005D000CC15DD0539F7DF91CF911F910F91FF9079
:1005E000EF90DF90CF90BF90AF909F908F90089545
:1005F00096B19095892F877039F082E091FF80E065
:1006000090FD816092FD84600895CF93DF93C09147
:100610001606D09117062097C9F08091E7058160F2
:100620008093E7056091FD057091FE058091FF05BF
:10063000909100069B01AC010E947A396A8B7B8BFA
:100640008C8B9D8B1092170610921606DF91CF911E
:10065000089590916706692F80916806482F34E0CD
:1006600090FF30E020E280FF20E061FD386041FD36
:100670002064309311022093120210920F02109204
:10068000100293FF03C020E120930F0294FF03C0E8
:1006900090E890930F0283FF03C098E090931002BC
:1006A00084FF03C080E180931002089580917B064F
:1006B00082FF13C0289A8091110280931E028091BC
:1006C00066068250990B880F819580931D02809158
:1006D0006F00826080936F0008952898ECCF80931C
:1006E000B300811106C08091B0008F778093B00075
:1006F00008958091B0008068F9CFCF93DF93239A5B
:10070000C0EBD0E083E0888384E08093B100209147
:100710007706309178064091790650917A0660917B
:1007200073067091740680917506909176060E940A
:1007300022369B01AC0160E070E08EE793E40E94FA
:10074000223760930B0270930C0280930D029093FA
:100750000E0288818F778883DF91CF910895E09191
:100760001D0191E09E0F993609F490E020918701D8
:10077000291761F0F0E0E25EFE4F808390931D0147
:100780008091C10080628093C10004C0209118064E
:1007900024FFECCF0895CF93DF93C5E0D7E0899194
:1007A000811103C0DF91CF9108950E94AF03F7CF6D
:1007B00010921C0690917B0697FD03C090E29093E7
:1007C0001C06882331F080911C0690E289278093D3
:1007D0001C0608958F929F92AF92BF92CF92DF92A4
:1007E000EF92FF920F931F93CF93DF93CDB7DEB7B6
:1007F0002D970FB6F894DEBF0FBECDBF6B017C0105
:10080000042F20E030E0A9010E94183787FF07C0BD
:100810008DE20E94AF03F7FAF094F7F8F094102FEE
:10082000123008F054C000FF0AC020E030E040E27F
:1008300051E4C701B6010E947A396B017C0120E0C6
:1008400030E040E05FE3C701B6010E9423360E941A
:10085000943710E03AE0832E912CA12CB12CE12F9B
:10086000F0E06115710581059105E9F581E090E001
:100870008C0F9D1FE80FF91F80E3101708F445C087
:10088000101309C0E1E0F0E0EC0FFD1FE10FF11DD6
:1008900080E380831F5FEE24E394F12CEC0EFD1EB9
:1008A000E10EF11C111134C02D960FB6F894DEBF85
:1008B0000FBECDBFDF91CF911F910F91FF90EF90B1
:1008C000DF90CF90BF90AF909F908F90089520E0E1
:1008D00030E048EC52E4C701B6010E947A396B015E
:1008E0007C0112509DCFEE24E394F12CEC0EFD1E02
:1008F000EE0EFF1EA50194010E94A33A605DF70170
:100900006083B901CA011F5FAACF1F5F8193B5CF72
:10091000101303C08EE20E94AF03F70182917F01A2
:100920000E94AF031150BECF20917B0640E020FF14
:1009300007C02BE832E441E25DE30E947A3941E0EE
:100940000C94EA0320917B0643E020FF07C02BE8CC
:1009500032E441E25DE30E947A3944E00C94EA0318
:100960000F931F93CF938C01C0E0F80161917191B7
:10097000819191918F010E94A204C23019F08CE202
:100980000E94AF03CF5FC33081F7CF911F910F91CA
:100990000895CF93DF93843658F06AE00E94833A3B
:1009A000C0E3C90F6AE00E94833AD0E3D90F04C0C4
:1009B000C0E0D0E08A30B0F7805D0E94AF03DD2355
:1009C00019F08D2F0E94AF03CC2329F08C2FDF91DB
:1009D000CF910C94AF03DF91CF910895CF93DF9324
:1009E000EC01FE0184912196811103C0DF91CF912A
:1009F00008950E94AF03F5CF8DEC91E00C94EE04C6
:100A0000CF93C82F86ED91E00E94EE048C2F0E94B8
:100A1000C904CF910C94FC04811104C082E392E0DC
:100A20000C94EE040C940005CF92DF92EF92FF92AB
:100A3000CF93DF93D82F6A017B01C22F84E20E94FB
:100A4000AF038D2F0E94C9048DE30E94AF034C2F8A
:100A5000C701B6010E94EA03DF91CF91FF90EF90AA
:100A6000DF90CF900C94FC04CF93DF93D82FC62F48
:100A700084E20E94AF038D2F0E94C9048DE30E947F
:100A8000AF038C2F0E94C904DF91CF910C94FC041A
:100A9000EF92FF920F931F93CF93DF9360916606BF
:100AA00070E080E00E9434056091690670E081E0AA
:100AB0000E9434056091670670E082E00E94340570
:100AC0006091680670E083E00E94340560917B06C7
:100AD00062FB662760F970E084E00E943405609153
:100AE0007B0666FB662760F970E085E00E943405AE
:100AF00080917B06082E000C990B692F661F6627D4
:100B0000661F70E086E00E94340560916A0670E01E
:100B10008AE00E94340540916B0650916C0660910A
:100B20006D0670916E0623E08BE00E9414054091E3
:100B30006F0650917006609171067091720623E005
:100B40008CE00E94140560917B06617070E08DE07E
:100B50000E94340560917B0665FB662760F970E0B2
:100B600084E10E94340560917B0663FB662760F98F
:100B700070E085E10E94340560917B0662956170AA
:100B800070E086E10E94340560917C0670E087E1A8
:100B90000E94340540917D0650917E0660917F064B
:100BA0007091800623E088E10E941405409181063F
:100BB00050918206609183067091840623E089E15A
:100BC0000E94140560918506709186068AE10E9454
:100BD000340540918706509188066091890670918E
:100BE0008A0623E08BE10E94140540917306509120
:100BF0007406609175067091760620E08EE10E9481
:100C000014054091770650917806609179067091AD
:100C10007A0620E08FE10E94140560917B066695BC
:100C2000617070E080E20E94340584E6F82E10E0E6
:100C3000C6E3D6E000E0E02EEF0C123011F11330E5
:100C400069F11130C9F0488159816A817B8123E0C3
:100C50008E2D0E9414050F5F2496033061F78AE001
:100C6000F80E1F5F8CE8F812E3CFDF91CF911F9150
:100C70000F91FF90EF9008954C855D856E857F857F
:100C8000E6CF20E030E041E655E4688D798D8A8D2D
:100C90009B8D0E942237AB01BC01D9CF4CA15DA135
:100CA0006EA17FA17058D3CF8DE50E94AF030C9445
:100CB000FC04CF93DF93CDB7DEB72C970FB6F89433
:100CC000DEBF0FBECDBF80ED91E00E94EE0469E271
:100CD00076E0CE0101960E94BC02CE0101960E94F0
:100CE000B0048AE30E94AF0380915A070E94C904AE
:100CF0000E9454062C960FB6F894DEBF0FBECDBFEF
:100D0000DF91CF910895E1E0F1E0ADE1B6E04D91E2
:100D10005D916D917C9113974083518362837383BE
:100D200014964D915D916D917C91179744835583F5
:100D30006683778318968D919D910D90BC91A02D1F
:100D400080879187A287B3870895BF92CF92DF9261
:100D5000EF92FF920F931F93CF93DF937C01FC01DF
:100D600002A513A5D4A5C5A5818980FF33C06091D4
:100D70005E0770E090E080E00E94CC372AE037ED1B
:100D800043E25CE30E947A399B01AC01B8018D2FEC
:100D90009C2F0E947A398B01D82FC92F20E030E098
:100DA00040E85FE3B8018D2F9C2F0E943A39181656
:100DB00024F000E010E0D0E8CFE3B8018D2F9C2FA5
:100DC000DF91CF911F910F91FF90EF90DF90CF9027
:100DD000BF90089582FD17C060915D0770E090E0BC
:100DE00080E00E94CC372AE037ED43E25CE30E94CA
:100DF0007A399B01AC01B8018D2F9C2F0E947A3962
:100E00008B01D82FC92FF701B6A0C7A0D0A4F1A499
:100E100098014D2F5C2F6B2D7C2D8D2D9F2D0E94C9
:100E2000183787FFBBCF0B2D1C2DDD2DCF2DB6CF57
:100E30008091360290915705981739F022E3829FEE
:100E4000C0011124895C9D4F089590E080E00895D1
:100E50000E941807892B19F082E00C94540208951F
:100E60002F923F924F925F926F927F928F929F92BA
:100E7000AF92BF92CF92DF92EF92FF920F931F93A8
:100E8000CF93DF9300D000D0CDB7DEB700915705E8
:100E9000002309F486C009833981315039831091C8
:100EA0003502131709F466C0C32ED12CE2E33E9F2E
:100EB000C00111249C01295C3D4F7901F90176881C
:100EC0008788908CA18C628D738D848D958D9B010C
:100ED000AC010E942336F701268D378D40A151A128
:100EE0000E947A39B62EE72EF82E9B83262F372FB5
:100EF000482F592F672D782D892D9A2D0E9418374C
:100F000087FF03C0B72C7401AB8282E38C9DF00194
:100F10008D9DF00D1124E95CFD4F8B2D9E2DAF2D85
:100F2000BB81828B938BA48BB58BF9818F2FF111B1
:100F300001C080E1FF24FA94F80E309036021F11B0
:100F400033C0131102C00E940503E2E31E9FC001DB
:100F50001124895C9D4F9A83898333243394310E05
:100F6000F0E13F1201C0312C82E3282E031185C02D
:100F7000109335020F900F900F900F90DF91CF914B
:100F80001F910F91FF90EF90DF90CF90BF90AF90A7
:100F90009F908F907F906F905F904F903F902F9099
:100FA000089520E1298378CF298182E3289F900149
:100FB0001124295C3D4F3C832B8322E3E22E8F2CAE
:100FC000912CFE9CC0011124FC01E95CFD4FFA83C9
:100FD000E983F11002C090E1F92EFA94F31002C0F7
:100FE0000E940503E89CC001E99C900D11249C011E
:100FF000295C3D4F6901F90146885788608C718CE6
:10100000A301920162897389848995890E941837A6
:10101000882339F1F601628D738D848D958D9B0146
:10102000AC010E942336F601268D378D40A151A1D7
:101030000E947A39EB81FC81228933894489558960
:101040000E9423364B015C01AC019B01C301B2013C
:101050000E943A39F60118165CF4828A938AA48AAF
:10106000B58A29813A813C832B831F11A8CF6DCF8C
:10107000428A538A648A758AF4CFC32CD12C329C5D
:10108000C00111249C01295C3D4F7901E981FA815D
:101090004288538864887588F90182889388A48877
:1010A000B588A5019401C301B2010E94183787FFDA
:1010B00026C0E981FA81628D738D848D958D9B01A7
:1010C000AC010E942336E981FA81268D378D40A13B
:1010D00051A10E947A39A30192010E9423362B016B
:1010E0003C01AC019B01C501B4010E943A391816BC
:1010F00034F4F701428A538A648A758A132D2C9C32
:10110000F0012D9CF00D1124E95CFD4F26893789F3
:10111000408D518D62897389848995890E94183721
:10112000811101C0132D3394F0E13F1201C0312C25
:10113000FA82E9821BCF6F927F928F929F92AF9239
:10114000BF92CF92DF92EF92FF920F931F93CF93B4
:10115000DF93EB018C015B018CE0A80EB11C89E9E7
:10116000682E96E7792E26E9822E3EE7932EC990C7
:10117000D990E990F99020E030E0A901C701B601CB
:101180000E9418378823B9F0A7019601F801608101
:101190007181828193810E9422376B017C01E894E6
:1011A000F7F89301A401C701B6010E943A39181655
:1011B00014F0360147010C5F1F4FCA15DB05B9F665
:1011C000B301C401DF91CF911F910F91FF90EF9078
:1011D000DF90CF90BF90AF909F908F907F906F9057
:1011E000089593B180917B0686FD9095967359F092
:1011F00092FB882780F991FD826094FD886090724F
:1012000019F08061089580E00895EBE6F0E08081B8
:10121000897C8083E8E6F0E080818E7F808308957A
:1012200084B1897C84B985B1897C85B980917B063C
:1012300083FF16C080916B00866380936B00809162
:10124000680081608093680084B7877F84BF809145
:10125000600088618093600081E080936000089561
:101260000E940509F1CF6DE176E083EA96E00C94E7
:10127000BC02F894F999FECF92BD81BD81E08FBB8D
:1012800020B5862F8227082E000C990B50E086236C
:101290009523892B49F084E16F3F11F060BD84E014
:1012A0008FBBF99A789408952617E1F360BD84E224
:1012B000F7CF9F92AF92BF92CF92DF92EF92FF92C1
:1012C0000F931F93CF93DF935C018A017B01E40EA0
:1012D000F51EEB01912C6C01C61AD70ACE018C0DBC
:1012E0009D1D21E0911007C0292D990C330B232F50
:1012F000221F2227221F6991962E920E0E943909E1
:10130000CE15DF0559F7692DC501800F911FDF91BB
:10131000CF911F910F91FF90EF90DF90CF90BF90F2
:10132000AF909F900C9439096AE090E080E00E94B1
:10133000390945E550E066E376E081E090E00C9401
:101340005909F999FECF92BD81BD81E08FBB80B56F
:1013500008959F92AF92BF92CF92DF92EF92FF9249
:101360000F931F93CF93DF935B018A017C01E40EFF
:10137000F51EEC01912C6B01C81AD90AC6018C0F1D
:101380009D1F0E94A10921E0911007C0292D990CF1
:10139000330B232F221F2227221F982E920E899370
:1013A000CE15DF0559F7C501800F911F0E94A109D5
:1013B00021E030E0891511F030E020E0C901DF9133
:1013C000CF911F910F91FF90EF90DF90CF90BF9042
:1013D000AF909F900895E1E0F1E08CE1DF011D9274
:1013E0008A95E9F7109236021092570581E08093B2
:1013F00000011092350208954F925F926F927F9292
:10140000AF92BF92CF92DF92EF92FF920F931F9312
:10141000CF93DF93EC015C012CE0A20EB11C8C0198
:10142000C12CD12C7601F8014190519061907190BE
:101430008F0120E030E0A901C301B2010E941837FA
:10144000882371F0A3019201C301B2010E947A398D
:101450009B01AC01C701B6010E9423366B017C01E0
:101460000A151B0501F7C701B6010E94193A6B0165
:101470007C01AC019B0160E070E080E89FE30E948A
:1014800022372B013C0169917991899199915E01F3
:10149000F4E0AF1AB108A30192010E947A39F50174
:1014A0006083718382839383C017D10761F7C7017B
:1014B000B601DF91CF911F910F91FF90EF90DF90D8
:1014C000CF90BF90AF907F906F905F904F900895B6
:1014D0004F925F926F927F928F929F92AF92BF9244
:1014E000CF92DF92EF92FF926B017C0180907706A2
:1014F00090907806A0907906B0907A064090730696
:10150000509074066090750670907606A301920163
:10151000C501B4010E943A3987FF1BC060915F0783
:1015200070E090E080E00E94CC372AE037ED43E2A3
:101530005CE30E947A39A70196010E947A396B0117
:101540007C01AC019B01C301B2010E94183718163F
:10155000B4F04092630750926407609265077092FE
:1015600066078FEFFF90EF90DF90CF90BF90AF9026
:101570009F908F907F906F905F904F900895A701FC
:101580009601C501B4010E943A3987FD1CC020E0D4
:1015900030E0A901C701B6010E941837811109C0C6
:1015A0001092630710926407109265071092660705
:1015B000D9CF8092630790926407A0926507B0929A
:1015C000660781E0CFCFC0926307D0926407E092B4
:1015D0006507F0926607A5019401C701B6010E9454
:1015E000223620910B0230910C0240910D02509155
:1015F0000E020E947A390E94073820E030E040E86D
:101600005FE30E9423360E949B37862FABCF9091D9
:101610005607911111C0811110C0109263071092EA
:10162000640710926507109266078091B0008F776B
:101630008093B00010926107089590917B0691FF0E
:1016400005C0803219F440E050E0BA01CB01BA0184
:101650000E94680A0E946F03EDCF2F923F924F9233
:101660005F926F927F928F929F92AF92BF92CF9232
:10167000DF92EF92FF920F931F93CF93DF93CDB73B
:10168000DEB7EB970FB6F894DEBF0FBECDBF8091EB
:10169000590780FD53C290915805809159059817BC
:1016A00009F44CC28091160690911706892B09F017
:1016B0007EC01091590712FF5AC28091570522E34C
:1016C000829FC0011124895C9D4F909317068093DF
:1016D000160640911606509117065A874987452BE2
:1016E00009F42CC20091E70500FF44C21092E705FF
:1016F0001092F9051092FA051092FB051092FC0564
:10170000A985BA855A962D913D914D915C915D9731
:1017100029833A834B835C8360E070E080E09FE341
:101720000E9422376D837E838F839887E985FA85AF
:10173000468C578C60A071A082889388A488B58855
:1017400011FF1DC3F2E0F093F805A50194010E947A
:101750007A399B01AC01C301B2010E9422366B01B0
:101760007C0120E030E0A9010E94183787FFF6C213
:1017700029813A814B815C81CA01B9010E942336DB
:10178000A30192010E947A399B01AC01C501B40109
:101790000E9422360E94193A60930506709306064D
:1017A000809307069093080618601093590780915C
:1017B0008405A82FB0E0BA8BA98B27E02A9FF001FF
:1017C0002B9FF00D1124E65AFA4F8091E605848391
:1017D00040911606509117065A874987DA015E969E
:1017E000BC91BDA3FA01F78DFEA3DA019096BC91DE
:1017F000BFA3FA01F1A1F8A72091F4053091F505F6
:101800004091F6055091F7056DA17EA18B2F9F2F7A
:101810000E94223669AB7AAB8BAB9CAB20E030E008
:10182000A9010E94183787FF04C019AA1AAA1BAA87
:101830001CAA209101062D8B309102063E8B40910F
:1018400003064F8B50910406588F809109068D8FA7
:1018500090910A069E8FA0910B06AF8FB0910C0657
:10186000B8A3E091F805ED87F0910D06F9A7209156
:101870000E062AA730910F063BA7409110064CA7F1
:101880007090FD056090FE055091FF055BAF809163
:1018900000068AAF9091F9059DA7A091FA05AEA721
:1018A000B091FB05BFA7E091FC05E8ABF091050600
:1018B000FEAB209106062FAB3091070638AF409162
:1018C000080649AF29A53AA54BA55CA56D8D7E8D6F
:1018D0008F8D98A10E9418378111E0C352E05DAB53
:1018E0009DA1998FAEA1AA8FBFA1BB8FE8A5EC8F58
:1018F0008EE3C82E83ECD82E8EE2E82E89E3F82EF4
:10190000212C312C2101A701960129A33AA34BA335
:101910005CA35D85513009F462C4A985BA85513054
:1019200008F4EEC3533009F090C45A962D913D91BE
:101930004D915C915D97C701B6010E947A394B01C8
:101940005C012D893E894F89588D672D762D8BAD91
:101950009AAD0E9422369B01AC01C501B4010E94E0
:101960003A3987FDA5C32D8D3E8D4F8D58A16DA1B0
:101970007EA18FA198A50E9422369B01AC010E94F6
:1019800023366B017C012D893E894F89588D672D47
:10199000762D8BAD9AAD0E9423369B01AC01C70119
:1019A000B6010E9422376B017C017D886E88BF8959
:1019B000BBAFE88DEAAF0D8D1E8DFF8DF98328A199
:1019C0002D8331E03D87A7019601C201B1010E943C
:1019D00023361B012C0129A13AA14BA15CA10E9435
:1019E000183787FF9FC4A201910169A17AA18BA139
:1019F0009CA10E9422366B017C01980149815D8186
:101A00006DA57EA58FA598A90E94183787FD49C3AB
:101A10003D853093F805872D962DABADBAAD8093FB
:101A2000FD059093FE05A093FF05B0930006E0919D
:101A30008505F09186058289811104C0909159072E
:101A400093FF31C0A985BA8551969C9151979073A7
:101A500009F488C49E96CD90DD90ED90FC90D197CE
:101A60008823B1F02091110630911206409113069F
:101A700050911406672D762D8BAD9AAD0E947A3960
:101A80009B01AC01C701B6010E947A396B017C0150
:101A9000C701B6010E94680A809315068091590714
:101AA000877F8093590727E0E989FA892E9FC00133
:101AB0002F9F900D1124AC01465A5A4F3A01809144
:101AC0001506DA0116968C932091F0053091F105F8
:101AD0004091F2055091F305B80189819D810E94E2
:101AE0007A3969877A878B879C870E9401376B01D7
:101AF0007C016091EC057091ED058091EE0590916F
:101B0000EF050E9401374B015C01A70196010E947D
:101B100022360E949B376D877E878F87988B2D8515
:101B20003E85F30131832083232B09F026C4809165
:101B3000590781FF22C4816080935907EB960FB645
:101B4000F894DEBF0FBECDBFDF91CF911F910F91F3
:101B5000FF90EF90DF90CF90BF90AF909F908F90CD
:101B60007F906F905F904F903F902F9008950E94CC
:101B70001807ABCD8091E6058F5F853009F480E0D2
:101B80008093E605282F30E053E1859FC0011124A2
:101B9000DC01A957BA4F7D01B0938605A093850556
:101BA000E985FA85808950968C93509785FDC1C050
:101BB00051961C9286FF0BC043E1429FF001439F68
:101BC000F00D1124E957FA4F81898061818BE985F5
:101BD000FA8590E080E04191519161917191D70136
:101BE000A80FB91F689412F8440F551F661F771F7E
:101BF0001694D1F74D935D936D937C931397049650
:101C00008C30910541F7A985BA851C966D917D911F
:101C10008D919C911F97B3E1B29FA001B39F500D8E
:101C20001124FA01E957FA4F4B015C0123E0880CBB
:101C3000991CAA1CBB1C2A95D1F784869586A6867A
:101C4000B7860E94CA376093EC057093ED058093C8
:101C5000EE059093EF05E985FA85268D378D40A135
:101C600051A10E9422379B01AC012093F0053093D3
:101C7000F1054093F2055093F30560E070E080EACF
:101C80009FE30E9422376093F4057093F5058093DB
:101C9000F6059093F7051092E8051092E905109269
:101CA000EA051092EB0511FD02C003FF46C06091EA
:101CB00005067091060680910706909108066093CC
:101CC000FD057093FE058093FF05909300069B0130
:101CD000AC010E947A39A985BA8552966D937D939D
:101CE0008D939C935597077F0093E705D7015296F4
:101CF0001C9280917B0681FFFBCCE985FA85818966
:101D000085FFF6CC22A533A544A555A560E070E07B
:101D100080E89FE30E9422376093110670931206B9
:101D20008093130690931406E1E0D7015296EC934A
:101D3000DFCCE8E05196EC933DCFE985FA856289E6
:101D40007389848995890E94193A6093FD0570937F
:101D5000FE058093FF0590930006C8CFC092F90559
:101D6000D092FA05E092FB05F092FC051092050670
:101D700010920606109207061092080615CD1092D2
:101D8000F8054092090650920A0660920B0670927E
:101D90000C0612FF6AC010920506109206061092F9
:101DA000070610920806C12CD12C760189859A85E8
:101DB0000E94A506698B7A8B8B8B9C8B9B01AC0157
:101DC0000E947A3969877A878B879C87A50194015D
:101DD0000E94183787FF93C029853A854B855C851B
:101DE000C501B4010E9422362D813E814F81588564
:101DF0000E947A399B01AC01C301B2010E942236D4
:101E00006093090670930A0680930B0690930C0664
:101E100020E030E0A9010E94183718160CF449C0E0
:101E200032E03093F80529813A814B815C81CA0107
:101E3000B9010E942336A30192010E947A399B01C5
:101E4000AC01C501B4010E9422360E94193A609388
:101E50000506709306068093070690930806809106
:101E6000E70588608093E7059FCCE0913602EF5F3D
:101E7000E03109F4E0E080915705C12CD12C7601C6
:101E80008E1751F022E32E9FF0011124E95CFD4FE3
:101E9000C288D388E488F588C701B6010E94193A40
:101EA00060930506709306068093070690930806D4
:101EB0007DCFA701960169857A858B859C850E94D7
:101EC00022362D813E814F8158850E947A39609358
:101ED0000D0670930E0680930F0690931006898965
:101EE0009A89AB89BC898093010690930206A093DE
:101EF0000306B093040693E09093F80555CCA70130
:101F00009601C501B4010E9422362D813E814F8188
:101F100058850E947A39A30192010E94233620E05D
:101F200030E040E05FE30E947A396D877E878F87DB
:101F3000988B20E030E0A9010E943A3918160CF085
:101F400094C0A30192016D857E858F8598890E943A
:101F5000183787FF88C0A701960169857A858B8528
:101F60009C850E9422362D813E814F8158850E949A
:101F70007A399B01AC0120930D0630930E064093F5
:101F80000F06509310066D857E858F8598890E9477
:101F90003A391816BCF529893A894B895C8920930E
:101FA0000106309302064093030650930406A501F0
:101FB000940169857A858B859C850E9418378111EB
:101FC00004C031E03093F805EFCBA5019401698599
:101FD0007A858B859C850E9422362D813E814F819A
:101FE00058850E947A399B01AC01C301B2010E945D
:101FF00022366093090670930A0680930B0690932D
:102000000C06D2CB8D859E85AF85B8898093090655
:1020100090930A06A0930B06B0930C0680930D06CE
:1020200090930E06A0930F06B093100629813A8173
:102030004B815C81CA01B9010E9423362D853E8502
:102040004F8558890E947A39A70196010E9423364C
:102050000E94193A6093010670930206809303066A
:1020600090930406A1CB92E047CF80910506909112
:102070000606A0910706B091080610920906109274
:102080000A0610920B0610920C068093010690939C
:102090000206A0930306B093040686CB81E08DABC5
:1020A0001FCC098F1A8F39813B8F4D814C8F31CCDA
:1020B00020E030E040E05FE3C501B4010E947A39DE
:1020C0009B01AC01672D762D8BAD9AAD0E94223617
:1020D000A70196010E947A399B01AC01698D7A8D26
:1020E0008B8D9C8D0E9422368B0189839D83A50157
:1020F0009401672D762D8BAD9AAD0E9422366AC071
:102100005A962D913D914D915C915D97C701B60115
:102110000E947A394B015C0120E030E040E05FE34F
:102120000E947A39272D362D4BAD5AAD0E942336A9
:10213000A70196010E947A399B01AC01698D7A8DC5
:102140008B8D9C8D0E9422368B0189839D839B0100
:10215000AC016D8D7E8D8F8D98A10E943A39181635
:102160008CF52D8D3E8D4F8D58A16DA17EA18FA137
:1021700098A50E9422369B01AC010E9423366B0178
:102180007C012D893E894F89588D672D762D8BAD29
:102190009AAD0E9423369B01AC01C701B6010E9493
:1021A00022376B017C017D886E88BF89BBAFE88DCB
:1021B000EAAFFDA9FD870D8D1E8D2F8D298338A1D6
:1021C0003D8301CCA5019401672D762D8BAD9AAD91
:1021D0000E942336762E672E8BAF9AAFF4CB2D89D3
:1021E0003E894F89588DC701B6010E947A399B01FB
:1021F000AC01698D7A8D8B8D9C8D0E9422368B016E
:1022000089839D8329A53AA54BA55CA50E94183713
:1022100087FFD9CB29A53AA54BA55CA5698D7A8DF9
:102220008B8D9C8D0E9422362D893E894F89588D39
:102230000E9422376B017C0109A51AA54BA5498391
:102240005CA55D8382E08D87BECB5A962D913D9132
:102250004D915C915D97C701B6010E947A394B019F
:102260005C01AC019B01672D762D8BAD9AAD0E9470
:102270003A39181644F520E030E040E05FE3C5014C
:10228000B4010E947A399B01AC01672D762D8BAD8C
:102290009AAD0E942236A70196010E947A399B01CD
:1022A000AC01698D7A8D8B8D9C8D0E9422368B01BD
:1022B00089839D832DA53EA54FA558A90E943A3933
:1022C00018160CF414CF2DA53EA54FA558A9698D5D
:1022D0007A8D8B8D9C8D0E9422369B01AC010E94D1
:1022E00023366B017C012EA93FA948AD59AD672D5E
:1022F000762D8BAD9AAD0E9423369B01AC01C701B0
:10230000B6010E9422376B017C017EA86FA8B8AD90
:10231000BBAFE9ADEAAF0DA51EA5FFA5F98328A9BE
:102320002D8351CB29A93AA94BA95CA9B801898170
:102330009D810E943A3918168CF42EE333EC4EE25C
:1023400059E369A17AA18BA19CA10E94233669A3BC
:102350007AA38BA39CA3A20191014BCB4D85409303
:10236000F80559CB10926307109264071092650725
:10237000109266071092150691CB2091E8053091D6
:10238000E9054091EA055091EB05C201B1010E94B7
:1023900023362B013C0129853A854B855C85C50197
:1023A000B4010E9422369B01AC01C301B2010E941C
:1023B00022374B015C0120EC31EE44E65EE40E94E2
:1023C0007A390E9401370E949B37603D57E07507BC
:1023D0008105910508F066C027E0A989BA892A9F7E
:1023E000F0012B9FF00D1124E65AFA4F158227E0D9
:1023F000A989BA892A9FF0012B9FF00D1124E65A72
:10240000FA4F7383628380915905809384058F5FAF
:10241000863009F4A1C080935905E0911606F09129
:102420001706C801A981BD81868F978FA0A3B1A38C
:10243000C092EC05D092ED05E092EE05F092EF052A
:1024400029853A854B855C85C701B6010E942236F5
:10245000A50194010E947A396093E8057093E9051B
:102460008093EA059093EB052091F9053091FA05E8
:102470004091FB055091FC05B80189819D810E9426
:102480001837811108C9F090590720E030E0A90100
:10249000B80189819D810E943A3918160CF05FC0FD
:1024A0008F2D49CB603A3FE0730781059105A0F578
:1024B000A7E049895A89A49FF001A59FF00D112436
:1024C000E65AFA4FB1E0B583A7E049895A89A49F3B
:1024D000F001A59FF00D1124E65AFA4F2581022E36
:1024E00004C096958795779567950A94D2F74D85A0
:1024F0005E8502C0440F551F2A95E2F75183408341
:102500006115710551E08507910508F470CF4FEF13
:102510005FEF5383428377CF6034EFE17E0781051D
:10252000910568F447E029893A89429FF001439F69
:10253000F00D1124E65AFA4F52E05583C5CF27E03B
:10254000A989BA892A9FF0012B9FF00D1124E65A20
:10255000FA4F33E03583B8CF109259055ECFF2FCC5
:102560009FCF109217061092160690913602809116
:102570005705891709F48FC881E0890F803109F464
:1025800080E020913502921302C08093350280933F
:10259000360281C880916F008D7F80936F0080919B
:1025A0008100887F81608093810010921302809166
:1025B0006906909155078F3FA1F4209119062111CA
:1025C00010C0903881F490E0019778F481E0909108
:1025D0007B0692FF02C091E08927882369F0289A40
:1025E0000895943081F780E0F2CFEFE9FFE0319772
:1025F000F1F700C00000E8CF28980895CF93DF934B
:102600000E94CA12E6EEF5E080E3DF011D928A9592
:10261000E9F7C4E1D2E081E2FE0111928A95E9F77F
:102620001092170610921606109258051092840503
:1026300081E080935905109213020E942903809132
:1026400012028B878BB1837F90911102892B8BB9FA
:102650008BB18F7990911202892B8BB980911002E6
:102660008D878BB18F7690910F02892B8BB988B1B2
:10267000877E90911002892B88B9DF91CF910895C0
:102680008091180684FD1EC080E10E945402809152
:10269000B0008F778093B00090915507892F8C728E
:1026A00021F480915907867069F0943049F4809143
:1026B0001906811103C086E00E9444020C94CA12DC
:1026C00083E0FACF08952F923F924F925F926F92DC
:1026D0007F928F929F92AF92BF92CF92DF92EF92B2
:1026E000FF920F931F93CF93DF93CDB7DEB7A497DD
:1026F0000FB6F894DEBF0FBECDBF1091190611239F
:1027000049F181E0809355078AE691E00E94EE044A
:10271000812F0E94C9040E94FC0485EF91E001977B
:10272000E1F51150123088F48EEC92E00E94EE0434
:102730008CEB92E00E94EE040E94540680E10E941D
:102740004A028091180684FFFCCF8FB7F89410924C
:1027500019068FBF10911806112309F4A4C214FFA3
:1027600023C081E080935607A4960FB6F894DEBF8D
:102770000FBECDBFDF91CF911F910F91FF90EF90D2
:10278000DF90CF90BF90AF909F908F907F906F9091
:102790005F904F903F902F900895EFE9FFE03197C1
:1027A000F1F700C00000BBCF10FFDEC08CE0EDE110
:1027B000F6E0DE01599601900D928A95E1F7BE018F
:1027C000675E7F4FCE010D960E94BC028CE30E9493
:1027D000AF0380915507883009F440C108F01BC150
:1027E000813009F444C108F434C1823009F442C193
:1027F000843009F439C180916A06F82FF1709F2E58
:1028000080FF4DC180916207882309F448C186E9A1
:1028100091E00E94EE04CE010D960E94B0048091DA
:102820006A0681FF1DC08AE891E00E94EE04909143
:10283000570580913602981708F480C1815F891B83
:102840000E94C9048CE20E94AF038091090290911A
:102850000A02981708F474C18058891B0E94C904A1
:1028600085E891E00E94EE04809155078C7709F489
:1028700069C16091FD057091FE058091FF05909101
:1028800000060E9494048CE20E94AF0360916307EB
:1028900070916407809165079091660740E00E94FF
:1028A000EA030E94F108F82E0E94F802082F86B170
:1028B0008072E0901C06E8268F2D802B8E29E1F196
:1028C00080E891E00E94EE04EE2019F080E50E947D
:1028D000AF03FF2001F1F0FE06C088E50E94AF03C0
:1028E00081E30E94AF03F3FE06C088E50E94AF03B8
:1028F00082E30E94AF03F1FE06C089E50E94AF03A8
:1029000081E30E94AF03F4FE06C089E50E94AF0395
:1029100082E30E94AF03002379F000FF03C082E549
:102920000E94AF0301FF03C088E40E94AF0302FFCF
:1029300003C083E50E94AF0380916207882309F4F6
:1029400005C181508093620780916107882309F453
:1029500016C18150809361078EE30E94AF030E94ED
:10296000FC0481E00E944A02812F887E09F44BC159
:1029700080915507982F937009F034C18872A9F09F
:1029800080915707807C89F40E94050382E0809340
:10299000590780915507803241F480E217FD0CC041
:1029A0008091570780688093570780915507811160
:1029B00003C091E09093570716FF07C085FD05C03F
:1029C0009091570790649093570713FF05C0807E3E
:1029D00019F480E18093550715FF04C18EEC92E055
:1029E0000E94EE048AE792E00E94EE040E945406E0
:1029F0008091570787FDF1C090915507903409F0F9
:102A0000E9C083FF04C0837E82608093570780E41F
:102A100080935507E2C0803221F198F4803109F0AB
:102A2000EACE8091570787FD1CC08EEB91E00E9493
:102A3000EE048091570780FF2EC080E30E94AF0311
:102A4000DACE8034D1F0803809F0D5CE8DE991E02E
:102A500002C088EC91E00E94EE04CDCE84EC91E0BF
:102A6000FACF8AEB91E0F7CF85EB91E0F4CF8FEAD4
:102A700091E0F1CF89EA91E0EECF83EA91E00E9404
:102A8000EE048091570783FF02C083E3D7CF82FF14
:102A900004C085FFD2CF81E3D1CF82E3CFCF409076
:102AA000C7065090C8066090C9067090CA065FEAD3
:102AB000A52E56E0B52E9E012F5F3F4F6901CE0136
:102AC0000D967C0100E0F5016191719181919191E8
:102AD0005F0120853185428553850E942336F601AA
:102AE00061937193819391936F01023041F4A3013B
:102AF00092010E94233669877A878B879C87911081
:102B000012C0F60134972081318142815381F7014F
:102B100060817181828193810E942236F7016083F6
:102B20007183828393830F5FF4E0EF0EF11C033017
:102B300051F691106CCE8FE891E06BCE81507FCE34
:102B400081508BCE60E070E0CB019BCE8091550729
:102B50008C7799F08DE180936207809161078111F4
:102B600003C081E0809361078AE791E00E94EE0450
:102B7000CE0101960E94B004E7CE89E0ECCF8091AF
:102B800055078C7729F183E18093610785E791E010
:102B90000E94EE0480915D070E94C9048CE20E94AD
:102BA000AF0380915E070E94C9048CE20E94AF03CC
:102BB00080915F070E94C9048091B00087FFCCCE4E
:102BC00081E791E00E94EE0483E50E94AF03C4CE4A
:102BD00089E0DACF903809F01ACF809157078062E8
:102BE0008093570717FF0CC080915507813029F457
:102BF0008091570785608093570780E88093550739
:102C000088EE0E944A0211FF28C0812F887611F5B4
:102C100080915507803441F48091570785FD04C0A9
:102C200084FFE9C01092550780915507882309F465
:102C3000E8C084FF0FC09091570790FF0BC0803110
:102C400009F0DFC080916007882309F4DAC088604A
:102C50008093600782E00E944A0212FF24C0909194
:102C6000570780915507807D09F4E4C0809158078B
:102C70008111E0C097FDE0C00E94050380913602FB
:102C8000809335020E9430078091590781FF05C06B
:102C900090915707916090935707897F80935907C8
:102CA00084E00E944A0290911A06992309F44CC0CC
:102CB0008FB7F89410921A068FBF40915D07842F4A
:102CC00090FD84E691FD865F92FD8A5093FD8F5FB3
:102CD00094FD8150893C08F088EC8A3008F48AE041
:102CE00030915E07232F95FD24E696FD22E397FDA4
:102CF00029E1481302C0231739F180935D0720931F
:102D00005E07109261077090360260905705172D8C
:102D100089E9282E96E7392E26E9422E3EE7532EE2
:102D200042E3842E1611A3C0C101D2018093190180
:102D300090931A01A0931B01B0931C010E940503FC
:102D4000709235020E94300710911B06112309F47E
:102D50004AC08FB7F89410921B068FBF90915F07FF
:102D6000892F10FD84E611FD865F12FD8A5013FD48
:102D70008F5F14FD8150893C08F088EC8A3008F49C
:102D80008AE09817A1F09091550780935F07911101
:102D9000C4C0409196065091970660919806709134
:102DA0009906809194060E94070B1092610780910A
:102DB000550715FF09C0803139F4909160079111D2
:102DC000B2C092E090936007107C69F0882311F004
:102DD000887349F01091930616FFA9C01F7B0E94CB
:102DE0007E0110939306809155078C7F09F4BCCC2B
:102DF0000E942D0BB9CC82FF17CF886080935707B4
:102E000013CF109259070E941807892B71F08091F7
:102E1000570786FD0AC01092570788E08093550730
:102E20000E942D0B0E94560315CF10925707109247
:102E3000550710CF97FF0AC0109259070E94EB095F
:102E40000E94FE120E9433090E9483068091570758
:102E500085FF08C08F7781608093570780E4809357
:102E600055071ECF109257071092550719CFA12E64
:102E7000B12C189DC0011124895C9D4F0E94A506AC
:102E8000962EC72ED82E092F9101A2010E943A3901
:102E90008A9C70018B9CF00C11249701295C3D4F9A
:102EA000790118168CF59101A201B101C2010E94AD
:102EB0007A39F701668B778B808F918F8A9CC0015E
:102EC0008B9C900D11249C01295C3D4F7901F901E7
:102ED00022A033A044A055A0A20191016689778960
:102EE000808D918D0E943A3918162CF4F701268AAC
:102EF000378A408E518E1F5F103109F410E0292C63
:102F00003C2C4D2C502E0ECF292D3C2D4D2D502FCD
:102F1000692D7C2D8D2D902FCACF80915907886007
:102F20008093590742CF90FF4FCF94604BCF1064EE
:102F300056CF1F93CF93DF93142F20E030E040EA69
:102F400051E40E947A390E9401370E949B37EB01BD
:102F50002097C9F080915607811115C011110DC03D
:102F60000E94C7172FEF80E792E0215080409040E9
:102F7000E1F700C000002197EBCF0E94631380911E
:102F8000570781FFEFCFDF91CF911F910895CF9227
:102F9000DF92EF92FF92CF93DF930E9463138091B1
:102FA0005707882309F462C00E9418070097E1F5CB
:102FB000C091940680919306C82BC0909606D0903D
:102FC0009706E0909806F090990680917B0681FF25
:102FD00003C080E20E943202C073D1E080915707A3
:102FE000882309F443C09091560791113FC080FF98
:102FF00018C090915507292F207C09F482C082FDCA
:103000001BC01092600740E050E0BA0180E00E94CF
:10301000070B0E947E01809157078D7F846080930B
:1030200057070E946313DACFFC01C189C073C6A49D
:10303000D7A4E0A8F1A8C9CF903811F58EEC92E0A2
:103040000E94EE0487E392E00E94EE040E94540680
:1030500040E050E0BA0180E00E94070B0E947E0130
:103060000E94CA1280915607882339F0DF91CF91D0
:10307000FF90EF90DF90CF9008950E946313F2CFFE
:10308000903419F48F7D809357078091570783FF01
:10309000C8CF90919406992359F081FD09C0809181
:1030A0007B0681FF21C08091590788608093590772
:1030B00080919306882369F08091570781FD09C0AC
:1030C0000E947E0141E060E070E080E89FE30E94A2
:1030D00099178091570781FDA4CF8061809357078E
:1030E00082E00E9454029DCFB701A6018C2F0E945E
:1030F000070B41E060E070E080E890E40E949917DF
:10310000D7CF809160078823C9F181FF0DC08091DE
:103110009406882351F140E050E0BA0180E00E941B
:10312000070BD09360077DCF8C7009F47ACF809124
:103130009406882399F08EEC92E00E94EE0480E4DD
:1031400092E00E94EE040E94540680917B0681FF6B
:103150000FC080915907886080935907809160075C
:1031600083FF03C082E00E9454021092600759CF8F
:10317000B701A6018C2F0E94070BF0CF8091590751
:1031800083FF4FCFB701A6018C2F0E94070B8091C0
:103190005907877F8093590744CF0E9428070E94D0
:1031A000C71780915607811108C00E941807892B04
:1031B000B1F780915507883091F30895CF93DF934D
:1031C00091E5899FE0011124DD5F40E550E0BE01FB
:1031D00085E097E00E94A909892B79F410920507F0
:1031E0000E94CD1840E550E065E077E0CE010E94F6
:1031F000590980E0DF91CF91089581E0FBCF0E94D3
:10320000CD18109262070895CF92DF92EF92FF924D
:10321000CF9390915507923079F06A017B01C82FC6
:103220000E94CD18B701A6018C2FCF91FF90EF908F
:10323000DF90CF900C94070BCF91FF90EF90DF9031
:10324000CF9008950F931F93CF93C82F8B010E94A7
:10325000CD182DE0C29FC00111244CE050E0B80110
:103260009E5FCF911F910F910C9459091F93CF939B
:10327000DF93182FEB018DE0189FB00111247E5FC2
:103280004CE050E0CE010E94A909892B71F48CE03A
:10329000FE0111928A95E9F7BE01812F0E94221941
:1032A00080E0DF91CF911F91089581E0FACFEF92F6
:1032B000FF920F931F93CF93DF93CDB7DEB72C9779
:1032C0000FB6F894DEBF0FBECDBF182F80FF0BC026
:1032D00085E5EDEDF1E0A6E3B6E005900D928A9567
:1032E000E1F70E94940911FF10C0CE0101967C0104
:1032F0008CE0F70111928A95E9F700E0B701802F81
:103300000E9422190F5F0830C9F712FF14C060E055
:1033100080E093E00E94390960E081E093E00E9440
:10332000390960E081E593E00E94390960E082E5B7
:1033300093E00E94390913FF0AC060E08EEA93E02F
:103340000E94390960E08FEA93E00E9439092C96C7
:103350000FB6F894DEBF0FBECDBFDF91CF911F91A6
:103360000F91FF90EF9008952F923F924F925F92AE
:103370006F927F928F929F92AF92BF92CF92DF9285
:10338000EF92FF920F931F93CF93DF93CDB7DEB7EA
:10339000C254D1090FB6F894DEBF0FBECDBF3B01BA
:1033A00000915705202E312C22E3029FA001112409
:1033B000BA01695C7D4F7CAB6BABFB0111922A9526
:1033C000E9F7F3012085FB01218BF301448155814D
:1033D00066817781EBA9FCA946A757A760AB71ABC3
:1033E00021FFF0C02CE0EDE1F6E0DE0159960190FE
:1033F0000D922A95E1F789AB9AAB26E336E0219648
:103400003FAF2EAF2197BE01635F7F4F7EAF6DAFA1
:10341000CE0149969CAF8BAFEBA9FCA9FAAFE9AFFF
:103420009E012B5D3F4F3EAB2DAB38AF2FAB10E075
:1034300082E3829D2001839D500C1124B201695CBE
:103440007D4F2B01CB010C9623969FAF8EAF239718
:1034500090E1490E511CE9A9FAA9619171918191FC
:103460009191FAABE9AB2196EEADFFAD219781903A
:103470009190A190B1902196FFAFEEAF2197A50159
:1034800094010E947A390E944739EDADFEAD6193F7
:10349000719381939193FEAFEDAFEBADFCADC19015
:1034A000D190E190F190FCAFEBAF6C197D098E09E2
:1034B0009F099B01AC0197FF07C022273327A90171
:1034C000261B370B480B590BE9ADFAAD219331930D
:1034D00041935193FAAFE9AF2396EEADFFAD239739
:1034E000C080D180E280F380C216D306E406F506E0
:1034F00010F469017A012396EEADFFAD2397C082E7
:10350000D182E282F3820E94CC37A50194010E940D
:103510002237EFA9F8AD6193719381939193F8AF3E
:10352000EFAB20E030E0A9010E94183787FF0BC005
:1035300090E2112321F090E0113009F490E4F201BF
:103540008081892B80831F5F133009F084CF80E056
:10355000CD28CE28CF2809F4CBC0CE0185960E9475
:10356000FC094B015C0122E3229DC001239D900DCB
:1035700011249C01295C3D4F7901F901868E978EBB
:10358000A0A2B1A2BE016B5D7F4F8EE496E00E94C7
:103590009B08F701628F738F848F958FBE016B5DDF
:1035A0007F4F82E496E00E949B08F70166A377A311
:1035B00080A791A7118910FF09C062A773A784A7EC
:1035C00095A710C02CE0E1E0F1E00FCFF3012081DE
:1035D00031814281538113FDA5C0F70122A733A792
:1035E00044A755A780913602081711F011FFA0C01B
:1035F00082E3829DF001839DF00D1124E95CFD4F73
:10360000128A138A148A158A12A213A214A215A26E
:1036100082E3829D8001839D100D1124095C1D4F62
:10362000F801818981FD63C08BA99CA90E94A50630
:103630006B017C018090190190901A01A0901B01F0
:10364000B0901C01AC019B01C501B4010E94183768
:1036500087FF36C1A5019401C501B4010E947A39E2
:10366000F801668B778B808F918F82E3829D80013A
:10367000839D100D1124095C1D4FF80182A093A0B9
:10368000A4A0B5A0A501940166897789808D918D4C
:103690000E943A3918162CF4F801868A978AA08E6F
:1036A000B18EC0921901D0921A01E0921B01F092E2
:1036B0001C018CE0FE01B596ADE0B1E001900D92E9
:1036C0008A95E1F78CE0FE013D96A1E0B1E0019022
:1036D0000D928A95E1F780910001809357058F5FE5
:1036E000803109F480E0809300010E94300781E07E
:1036F000CE5BDF4F0FB6F894DEBF0FBECDBFDF91BC
:10370000CF911F910F91FF90EF90DF90CF90BF90DE
:10371000AF909F908F907F906F905F904F903F9071
:103720002F900895C501B4010E947A39F70145CF61
:103730002DE031E03AAB29AB8E010F5F1F4F6DA931
:103740007EA9645F7F4F7CAF6BAFC12CD12C76011B
:103750000FAB19AFE9A9FAA981909190A190B1900E
:10376000FAABE9ABEDA9FEA941905190619071903F
:10377000FEABEDABA3019201C501B4010E947A3901
:103780009B01AC01C701B6010E9422366B017C018E
:10379000A5019401C301B2010E942236F801619390
:1037A0007193819391938F012BAD3CAD6DA97EA94F
:1037B0002617370779F62FEE3FEF4FE75FE3C70194
:1037C000B6010E943A3918164CF482E3829DF0014A
:1037D000839DF00D1124E95CFD4F16CF2FEE3FEFD6
:1037E0004FE75FEBC701B6010E94183787FF11C092
:1037F00082E3829DF001839DF00D1124E95CFD4F71
:1038000089E996E7A6E9BEE782A393A3A4A3B5A39B
:10381000FFCE8FA999AD0E94FC096FA979AD8EE406
:1038200096E00E949B084B015C01A701960160E0B5
:1038300070E080E89FE30E94223620E030E040E024
:103840005FE30E947A390E94193A6B017C01209152
:103850006B0630916C0640916D0650916E06C50165
:10386000B4010E947A39A70196010E947A394B016E
:103870005C01A701960160E070E080E89FE30E9490
:1038800022369B01AC01C501B4010E9422376B01B5
:103890007C0120E030E0A9010E94183787FF03C0B7
:1038A000C12CD12C760182E3829DF001839DF00D25
:1038B0001124E95CFD4FC2A2D3A2E4A2F5A2A8CED6
:1038C000A7019601C701B601C9CEFF920F931F93BE
:1038D000CF93DF938C01EB0180917B0685FF23C0A2
:1038E000F090550780E2F81611F1C8010E945D02C0
:1038F0008823C9F081E08093580788E0F8120CC053
:103900000E9454020E94C7178091560781110BC074
:10391000809155078111F6CF0E94401382E00E94EA
:1039200044020E94C71780915507823041F10E94DE
:10393000C71780915607811122C09091360280915D
:103940000001981303C00E942807F1CFBE01C801EF
:103950000E94B419811113C080917B0681FF0FC0B2
:10396000888584FF0CC04C815D816E817F8180E100
:10397000DF91CF911F910F91FF900C940419DF916B
:10398000CF911F910F91FF9008952F923F924F92E8
:103990005F926F927F928F929F92AF92BF92CF92DF
:1039A000DF92EF92FF920F931F93CF93DF93CDB7E8
:1039B000DEB7CC54D1090FB6F894DEBF0FBECDBF31
:1039C000EBECF6E08AE3DF011D928A95E9F78BE0E4
:1039D000EBE8F6E0ACECB6E001900D928A95E1F7E9
:1039E000809105078432A1F01A8E1BA2312C212C64
:1039F0001EA61DA610E01B8E1F8EEE24E394F12C54
:103A0000AAE0AA2EB12CB1E68B2EB3E09B2E4EC1BC
:103A100081E08093CC061092CD0683E08A8FB1E0DE
:103A2000BBA3E4CF9FEB9D0D9A3110F00C94512A6B
:103A30008F5F8A8FBE016A5E7F4FCE014A960E94D9
:103A40008501882311F40C94542A4E885F88688C71
:103A5000798CC301B2010E945D3A0E949B37062F08
:103A600070E090E080E00E94CC379B01AC01C30184
:103A7000B2010E94223620E030E048EC52E40E947D
:103A80007A390E94E7390E949B37CB01E7E4DE16C2
:103A900029F1FDE4DF1609F465C1EAEBED0DE5312E
:103AA00008F02CC00E2E000CFF0BE75AF24E0C94BF
:103AB000C53AFB1E7E1D7E1D281F331F3E1F491F5A
:103AC0007E1D4D1F7E1D5B1F7E1D651F6F1F791F95
:103AD0007E1D7E1D7E1D891F961FA31F083209F4BF
:103AE000DDC030F5043160F4013108F098C00430D5
:103AF00009F474C0B0F00A3009F468C084E196C0DB
:103B00000C3109F463C040F40631C0F725E1201BF5
:103B10002093CE0626E087C00E3109F457C0063246
:103B200069F74F8D41110C94572AA2E0AF8F28C03E
:103B30000D3309F4AEC0E0F4053309F44FC088F446
:103B40000B3211F00133D1F6BF8DB1110C94572A0D
:103B5000013309F095C01092D106E3E0EF8F28E021
:103B60004FC00C3358F606530093D20629E05BC0D1
:103B70000C3508F50A3508F073C0003509F0BECFE2
:103B80000093CC0621E0063209F04DC08431910546
:103B900051F08E31910539F08832910521F0823350
:103BA000910509F0ABCFB5010E948F3A665760933B
:103BB000CC0621E025C00C3549F00F3508F09ECF2A
:103BC0002EE5201B2093CD0625E02DC0009731F473
:103BD0002F8D21110C94572A31E03F8F0093CB0693
:103BE000202F2D7F2C3119F020E00C35E1F40097C7
:103BF00019F00A9709F082CF600F6093CB0620E09E
:103C0000C70102C0880F991F2A95E2F72DA53EA58E
:103C100028233923232B09F443C085E107C0015130
:103C20000093D00622E0892B59F387E1C45BDF4F74
:103C30000FB6F894DEBF0FBECDBFDF91CF911F91BD
:103C40000F91FF90EF90DF90CF90BF90AF909F903B
:103C50008F907F906F905F904F903F902F9008953E
:103C6000892B29F40A550093CF0623E0C9CF6A3087
:103C7000710509F043CF0A3509F440CF24E0C0CFE5
:103C80000A9709F03BCFF1E0F093D10623E02F8FA4
:103C900066CF892B09F032CF2AE0B2CF27E0C3CF1D
:103CA000ADA5BEA5A82BB92BBEA7ADA78A8DE82FC1
:103CB000F0E0EB5FF84FD080D110B4CEBB8DBB23CA
:103CC00029F0EF8DE11102C0F2E0FF8F25FE0FC059
:103CD0008091E8069091E906A091EA06B091EB0682
:103CE00081389649A849B10514F00C94632A3BA188
:103CF000332309F435C120FE45C18091CE068130C1
:103D0000B1F423E333E34BEC51E46091D7067091B7
:103D1000D8068091D9069091DA060E947A3960938C
:103D2000D7067093D8068093D9069093DA0630FCB4
:103D300010C08091960690919706A0919806B09138
:103D400099068093F4069093F506A093F606B09337
:103D5000F7068091CB06843009F02FC126FC2BC1D9
:103D60008CE164CF892B09F060CF063050F403302A
:103D700098F00430D9F080E10530C9F41092D506EE
:103D800018C0083008F4BACE0A3048F10E3109F0F4
:103D9000B5CE0093D30604C0002321F00130C9F74B
:103DA0008BE008C0B3E0B093D306FACF80E28093F3
:103DB000D5068CE0F70102C0EE0FFF1F8A95E2F7EF
:103DC000CF012DA53EA52E233923232B09F025CF86
:103DD0002DA53EA52E2B392B3EA72DA767CF093049
:103DE00039F08091D40680648093D4068DE0E2CFD0
:103DF0001092D406FBCF4092D7065092D80660921C
:103E0000D9067092DA0680E06701082E02C0CC0C59
:103E1000DD1C0A94E2F7960122213321232B11F0B5
:103E20000C945D2AD40102C0B595A7958A95E2F756
:103E3000A0FF0BC020E030E0A901C301B2010E9445
:103E4000183787FF02C00C94602A2C283D282ECFFB
:103E50004092DB065092DC066092DD067092DE0630
:103E6000116081E0D1CF4092DF065092E00660926F
:103E7000E1067092E206126082E0C6CF4092E3064D
:103E80005092E4066092E5067092E606146083E0C4
:103E9000BBCF0093E70684E0B7CFC301B2010E9415
:103EA00094376093E8067093E9068093EA0690934E
:103EB000EB0685E0A9CF4092EC065092ED066092A9
:103EC000EE067092EF0686E09FCF4092F006509289
:103ED000F1066092F2067092F30687E095CF409269
:103EE000F4065092F5066092F6067092F70688E0A6
:103EF0008BCF20E030E04FE753E4C301B2010E94D2
:103F00003A39181614F40C945A2A0093F80689E0EA
:103F10007BCF4092F9065092FA066092FB067092AF
:103F2000FC063B8D31603B8F8AE06ECF4092FD06F0
:103F30005092FE066092FF06709200074B8D426021
:103F40004B8F8BE061CF4092010750920207609245
:103F50000307709204078B8D84608B8F8CE054CFA5
:103F60008091CD06813081F44F8D423009F0DFCE53
:103F70008091CC06803509F4DACE882309F4D7CEB7
:103F800020FCD5CE86E152CE80918C068111CFCE19
:103F900020FCB3CE80919A0690919B06A0919C063E
:103FA000B0919D068093D7069093D806A093D9062A
:103FB000B093DA06BCCEE89426F88091D006882328
:103FC00059F0813009F4BBC022961FAE2297A2E0BF
:103FD000ABAFB1E0B9AF07C082E022968FAF2297B6
:103FE00091E09BAF19AE8091CE06813071F5EBEC7C
:103FF000CE2EE6E0DE2EF12CE12C2B8DA22EB12C64
:10400000C5010E2C02C0959587950A94E2F780FFB2
:1040100012C023E333E34BEC51E4D6019E966D913D
:104020007D918D919C91D1970E947A39F60166A776
:1040300077A780AB91ABFFEFEF1AFF0A24E0C20E27
:10404000D11C33E0E316F104D9F64F8D433049F427
:104050008091D106813029F48B8D843011F00C943D
:10406000662A8CE0EFEAF6E0DE01119601900D92EF
:104070008A95E1F7ADA5BEA5B1FD69C00091CB065B
:104080000A3009F478C00C3509F419C19F8D9330BA
:1040900009F43FC0AB8DAA23E1F1B091CF06BFA3D5
:1040A0008091C7069091C806A091C906B091CA0632
:1040B00089A79AA7ABA7BCA79BE8A92E96E0B92E23
:1040C0002BECC22E26E0D22EF12CE12C9B8D892EDA
:1040D000912CC4010E2C02C0959587950A94E2F7A5
:1040E00080FD5DC1F501808D918DA28DB38DF601AE
:1040F00086A797A7A0ABB1ABFFEFEF1AFF0A24E0AA
:10410000A20EB11C34E0C30ED11C43E0E416F1044E
:1041100001F70E3109F494C1053309F4B8C16BED10
:1041200076E086E00C3109F02DC10E943619882313
:1041300001F18B8D811188C119A61F8EA9C0E1E004
:104140002296EFAF22971BAEF2E0F9AF4CCF8091F1
:10415000D206873010F08DE169CD909191068917D4
:1041600009F48CCFBE016F5F7F4F0E943619811119
:1041700085CF87E05BCDBB8DB11102C08AE156CD02
:10418000C10180759927892B09F4EACD6091EC066D
:104190007091ED068091EE069091EF060E945D3AD7
:1041A0000E949B376730B8F68091E706843129F08A
:1041B000823009F0A3CC27FCA1CC662309F474C09B
:1041C000615069A76BED76E089A50E9436198823B6
:1041D00081F20091E7064090C7065090C8066090B3
:1041E000C9067090CA067BECC72E76E0D72EF12C5C
:1041F000E12C3B8D232F30E038A72FA38FA198A56A
:104200000E2C02C0959587950A94E2F780FF33C083
:10421000D6019E968D909D90AD90BC90D197043123
:1042200009F046C0F701EE0FFF1FEE0FFF1FE55725
:10423000F94F20A931A942A953A9608D718D828DB2
:10424000938D0E942236A50194010E942236F60128
:10425000608B718B828B938BF2E0EF120CC0A30109
:1042600092010E9422366093E3067093E4068093E5
:10427000E5069093E606BFEFEB1AFB0AE4E0CE0EEC
:10428000D11CF3E0EF16F10409F0B8CF2FEA222297
:104290008091CC068FA3803509F000C19B8D9923B6
:1042A00009F406C18FE1C2CCE091D206E9A78ACF1A
:1042B00050968D929D92AD92BC925397DCCF3B8DE0
:1042C000332309F45BCF4090C7065090C806609036
:1042D000C9067090CA064BE8842E46E0942ECE01A3
:1042E00001967C015BECA52E56E0B52ED12CC12C9D
:1042F000A32FB0E0B8A7AFA38FA198A50C2C02C044
:10430000959587950A94E2F780FF3EC0F7012081DA
:10431000318142815381D40158966D917D918D9167
:104320009C915B970E942236F50126A537A540A9EE
:1043300051A90E942236D5019E966D937D938D934F
:104340009C93D197B2E0CB120CC0A30192010E94C2
:1043500022366093010770930207809303079093BE
:104360000407FFEFCF1ADF0A24E0820E911C34E02D
:10437000E30EF11C44E0A40EB11C83E0C816D10486
:1043800009F0BACF19A684CFF40180A991A9A2A9F6
:10439000B3A9F50186A797A7A0ABB1ABE2CF0533D0
:1043A00009F4AACED6019E964D905D906D907C90BA
:1043B000D197BFA1B11133C0F701EE0FFF1FEE0F70
:1043C000FF1F21E030E02C0F3D1FE20FF31FD5014E
:1043D000D0962D913D914D915C91D39760817181E3
:1043E000828193810E942336A30192010E94233689
:1043F000F60166A777A780AB91ABF2E0EF127CCE17
:1044000029A53AA54BA55CA50E9423366093010718
:104410007093020780930307909304076DCEA30166
:104420009201D50158966D917D918D919C915B97EC
:104430000E942336F60166A777A780AB91AB5CCECE
:104440006BED76E087E071CEABE8B6E0EBECF6E042
:1044500090E080E04B8D242F30E0A901082E02C0AF
:10446000559547950A94E2F740FD0AC058964D913C
:104470005D916D917C915B97408B518B628B738BBF
:104480000196149634968330910539F77BCF80914D
:10449000CC06823008F476CF8EE1C8CBAF8DA23047
:1044A00039F4BFA1B11173C0EB8DEE2309F48DC0B7
:1044B0002BA12170EBA1C101E0FFD8C28E7DFF8D41
:1044C000F111937E892B11F00C946F2A8E01035FFA
:1044D0001F4F89E0D8011D928A95E9F7222309F43C
:1044E000C8C28DA59EA5867B892B11F00C94722ADB
:1044F0008091CB06853319F081110C94722A80913A
:10450000960690919706A0919806B0919906898B8E
:104510009A8BAB8BBC8B8091940690919306892BE0
:104520004091D7065091D8066091D9067091DA066D
:104530004D875E876F87788B84608D8B80917B063B
:1045400085FF06C089EF96E00E945D028111CDC70C
:10455000B80189EF96E00E94651C80915507811192
:104560000BC00E941807892B39F080E28093550711
:104570000E942D0B0E9456038CE0E9EFF6E0A3EABF
:10458000B6E001900D928A95E1F780E04FCB20E0F4
:1045900030E0A9016091D7067091D8068091D906C4
:1045A0009091DA060E941837882309F4EBCCFFA11A
:1045B000FC38B9F060F4F23059F1F33061F1F130C8
:1045C00009F076CF3B8D311173CF1F8E71CF2FA1A4
:1045D0002E3839F018F02F3809F06ACF9BA190617E
:1045E0009BA38FA18E58823018F4ABA1A860ABA317
:1045F000BB8DBB2309F4C2CD4CE050E069EF76E0FF
:1046000083EA96E00E94E53A892B09F051CF6DC00C
:104610004BA144604BA38B8D882309F4AFCDB9AD7A
:10462000AB2FB0E0BAABA9ABFBADEF2FF0E0FEAB28
:10463000EDAB81E090E07C0109AC02C0EE0CFF1C08
:104640000A94E2F70BAC02C0880F991F0A94E2F7B4
:10465000E82AF92A2B8D822F90E08E219F21892B29
:1046600009F437C7FD01EE0FFF1FEE0FFF1FE553E3
:10467000F94FAA0FBB1FAA0FBB1FAD55B94F2D9104
:104680003D914D915C9166A577A580A991A90E9465
:1046900022362B013C01EDA9FEA9EE0FFF1FEE0F04
:1046A000FF1FE553F94FADA9BEA9AA0FBB1FAA0F63
:1046B000BB1FAD55B94F2D913D914D915C9166A5B4
:1046C00077A580A991A90E9422364B015C0127FEA3
:1046D000FFC0E89427F84CE050E069EF76E083EA09
:1046E00096E00E94E53A892B11F481E29FCA60911D
:1046F000F0067091F1068091F2069091F3062091F8
:10470000CE06213071F423E333E34BEC51E40E94F5
:104710007A396093F0067093F1068093F2069093D5
:10472000F3068091F0069091F106A091F206B09107
:10473000F30621968CAF9DAFAEAFBFAF2197A3011B
:104740009201C301B2010E947A3929966CAF7DAF04
:104750008EAF9FAF2997A5019401C501B4010E94B6
:104760007A392D966CAF7DAF8EAF9FAF2D9720E03D
:1047700030E040E850E421966CAD7DAD8EAD9FAD4C
:1047800021970E947A3921962CAD3DAD4EAD5FAD9B
:1047900021970E947A3929962CAD3DAD4EAD5FAD83
:1047A00029970E9422362D962CAD3DAD4EAD5FADC2
:1047B0002D970E9422366B017C0120E030E0A90198
:1047C0000E94183787FD88C6C701B6010E94193AB2
:1047D0006B017C012D962CAD3DAD4EAD5FAD2D979F
:1047E00029966CAD7DAD8EAD9FAD29970E94233685
:1047F0000E94193A9B01AC01C701B60190580E9472
:1048000022376B017C019FA1933021F4F7FAF094D9
:10481000F7F8F09420E030E0A90121966CAD7DAD71
:104820008EAD9FAD21970E94183787FF13C0F7FA0E
:10483000F094F7F8F09421968CAD9DADAEADBFAD80
:104840002197B0588093F0069093F106A093F2065A
:10485000B093F30609A91AA9000F111F000F111F29
:104860000552194FA7019601C501B4010E947A397A
:104870009B01AC01C301B2010E94223620E030E06E
:1048800040E05FE30E947A39D8016D937D938D9368
:104890009C9313970DA91EA9000F111F000F111F44
:1048A0000552194FA7019601C301B2010E947A393E
:1048B000A50194010E94233620E030E040E05FE350
:1048C0000E947A39F8016083718382839383F0CDEB
:1048D000C12ED12CE122FD2083E2EF2809F4A6C9E4
:1048E000F1EF2F228091CE06813041F50BEC16E0DE
:1048F000F12CE12CC6010E2C02C0959587950A94E7
:10490000E2F780FF12C023E333E34BEC51E4D8011C
:1049100050966D917D918D919C9153970E947A391B
:10492000F801608B718B828B938BFFEFEF1AFF0A7C
:104930000C5F1F4F23E0E216F104E1F6E9A9FAA9A2
:10494000EE0FFF1FEE0FFF1FE552F94FC080D18021
:10495000E280F380A7019601C301B2010E942236D2
:104960002B013C01EDA9FEA9EE0FFF1FEE0FFF1F6B
:10497000E552F94F80819181A281B38189AB9AABD5
:10498000ABABBCAB9C01AD01C501B4010E942236AA
:104990004B015C01A3019201C301B2010E947A396B
:1049A0002B013C01A5019401C501B4010E947A3993
:1049B0009B01AC01C301B2010E9423360E94193A47
:1049C0004B015C01A7019601C701B6010E947A392B
:1049D0006B017C0129A93AA94BA95CA9CA01B901BB
:1049E0000E947A399B01AC01C701B6010E942336AF
:1049F0000E94193A6B017C01C092F006D092F10638
:104A0000E092F206F092F306AC019B01C501B401FD
:104A10000E9422364B015C01E894B7F82AE037ED9A
:104A200043EA5BE3C501B4010E943A3918160CF061
:104A30003FCD20E030E040E05FE3C501B4010E94DB
:104A40003A3918160CF451CE2FE632E143E85AE316
:104A5000C701B6010E947A399B01AC01C501B401BE
:104A60000E943A3918160CF023CD3FCE8E7D9C7FE4
:104A700026CD80917B06F090940681FF12C08FA115
:104A80008150833018F0BBA1B064BBA3EB8DEE2343
:104A900009F442C1FF8DF23009F03EC12BA120681C
:104AA0002BA38091E8069091E906A091EA06B091C7
:104AB000EB0680939F069093A006A093A106B09367
:104AC000A2068091CD0680938C06882311F088E0A1
:104AD0008D8B8091D7069091D806A091D906B09180
:104AE000DA0680939A0690939B06A0939C06B09357
:104AF0009D068D879E87AF87B88B8090F406909037
:104B0000F506A090F606B090F706A5019401609115
:104B100096067091970680919806909199060E944A
:104B200018379BA19074E92E811103C0ABA1A5FF9A
:104B30001FC0FF2069F0BBA1B7FD0AC040E050E0F4
:104B4000BA01E11002C0B501A4018F2D0E94041921
:104B50008091F4069091F506A091F606B091F706C3
:104B60008093960690939706A0939806B093990623
:104B7000E1100CC08091960690919706A09198063E
:104B8000B0919906898B9A8BAB8BBC8B8091F80680
:104B900080939E068091D50690919406981751F0C7
:104BA00049895A896B897C890E9404198091D506AC
:104BB000809394068D8990919406892B8D8B90918A
:104BC00093068091D406981761F080915507823042
:104BD00021F00E94CD180E947E018091D40680931E
:104BE00093068D8990919306892B8D8B8091CB06AE
:104BF000843099F480915507823079F0C090EC06AA
:104C0000D090ED06E090EE06F090EF060E94CD18F1
:104C100040E0C701B6010E9499178091D0068093A9
:104C20008F068091CE0680938D06EF8DE33071F56F
:104C30008091D10680939006811108C010920107DF
:104C4000109202071092030710920407C090010708
:104C5000D0900207E0900307F0900407A7019601A7
:104C60006091C7067091C8068091C9069091CA06E6
:104C70000E941837882351F0C092C706D092C80608
:104C8000E092C906F092CA060E94FF188091D206EF
:104C900090919106981769F0809391068CE0FE013F
:104CA0003196AFEAB6E001900D928A95E1F70E9445
:104CB000FF188091CF0680938E068091CB068632B6
:104CC00009F47EC008F03FC08C3109F45FC08E311A
:104CD00009F45CC08A3009F443C08091CC0680930B
:104CE0008B06803509F449C3BF8DB23009F045C346
:104CF000813009F079C0BE01635F7F4F89EF96E094
:104D00000E94651C8CE0E9EFF6E0A3EAB6E00190B2
:104D10000D928A95E1F731C330E1F312C2CE9BA127
:104D2000907480918B068150833038F4992309F474
:104D3000B8CE4BA140624BA3B4CE9111B2CE8BA1A1
:104D400080628BA3AECE8C3509F440C0863609F460
:104D500043C0883209F0C1CF63EA76E087E033C010
:104D60006BED76E089A50E94221980919106F9A544
:104D7000F813B3CF8CE0EBEDF6E0AFEAB6E00190CC
:104D80000D928A95E1F70E94FF18A7CF8D89816067
:104D90008D8B2F8D222329F0B80189EF96E00E9498
:104DA000651CB8018BED96E00E94651C8CE0EBED74
:104DB000F6E0A3EAB6E001900D928A95E1F78DCF77
:104DC00063EA76E086E00E94221987CF8CE0E9EF63
:104DD000F6E0ABEBB6E0D3CFEBEBF6E08CE0DF0137
:104DE0001D928A95E9F7CFCF811105C08D89816029
:104DF0008D8BB80183CF8250823008F097C28091AA
:104E0000F0069091F106A091F206B091F3068F8F13
:104E100098A3A9A3BAA3A9AD94E0A99F70011124F6
:104E2000F701ED55F94FF8A7EFA397012552394F38
:104E30003AA729A7D9014D905D906D907C90208173
:104E4000318142815381C301B2010E9423366DA793
:104E50007EA78FA798ABEBADB4E0EB9F8001112448
:104E600098012D55394F3AAF29AFC8018552994F56
:104E70009CAF8BAFDC018D909D90AD90BC90F90103
:104E80002081318142815381C501B4010E942336C2
:104E900069AB7AAB8BAB9CAB77FA709477F8709474
:104EA000D501C401B0588B8F9C8FAD8FBE8FF70199
:104EB000E750F94F2DA53EA54FA558A960817181F6
:104EC000828193810E9422366B017C01F801E750B8
:104ED000F94F29A93AA94BA95CA960817181828106
:104EE00093810E9422364B015C01A7019601C30108
:104EF000B2010E947A396DAB7EAB8FAB98AFA50142
:104F000094016B8D7C8D8D8D9E8D0E947A399B01D5
:104F1000AC016DA97EA98FA998AD0E9423366DAB17
:104F20007EAB8FAB98AFA5019401C301B2010E9483
:104F30007A394B015C01A70196016B8D7C8D8D8DBB
:104F40009E8D0E947A399B01AC01C501B4010E947B
:104F500022362DA93EA94FA958AD0E94A2366B0159
:104F60007C019BA192FF68C12DEB37E346E055EB36
:104F7000C701B6010E943A3987FD0AC02BED3FE018
:104F800049EC50E4C701B6010E9422366B017C0156
:104F900080906F0690907006A0907106B090720697
:104FA0002F8D38A149A15AA1CA01B9010E94233607
:104FB000A50194010E942236A50194010E947A392C
:104FC0000E94193A4B015C0120E030E040E05FE3D1
:104FD000C701B6010E947A392F8D38A149A15AA183
:104FE0000E947A399F77A50194010E9422370E947E
:104FF00007380E949B377EAB6DABDB01AB2B09F40E
:105000007ACE1D8990E080E00E94CA374B015C0196
:1050100013FF0EC0AC019B016D857E858F8598893D
:105020000E947A396D877E878F87988B177F1D8BBB
:10503000A5019401C701B6010E9422376BA37CA38E
:105040008DA39EA32296EFAD2297B4E0EB9FC00103
:1050500011248C010D55194F8750994FD8012D916E
:105060003D914D915C91FC016081718182819381C0
:105070000E942236A50194010E94223729966CAF26
:105080007DAF8EAF9FAF29972BA13CA14DA15EA113
:10509000CA01B9010E947A399B01AC0160E070E05D
:1050A00080E090E40E9422366B017C012BEA3AEA10
:1050B0004AE25EE36BA17CA18DA19EA10E947A3998
:1050C0004B015C0120E030E040E850E4C701B6014C
:1050D0000E9423369B01AC01C501B4010E947A39BC
:1050E00021966CAF7DAF8EAF9FAF219720E030E06F
:1050F00040E05FE3C701B6010E947A3925966CAFA4
:105100007DAF8EAF9FAF25971F8E22242394312C25
:10511000EDA9FEA9E215F30509F4EDCDFF8DFC30F4
:1051200008F09EC0A301920121966CAD7DAD8EADBD
:105130009FAD21970E947A396B017C012B8D3C8DAC
:105140004D8D5E8D25966CAD7DAD8EAD9FAD259759
:105150000E947A399B01AC01C701B6010E94233637
:105160007B016C01A301920125966CAD7DAD8EADE6
:105170009FAD25970E947A394B015C012B8D3C8DA8
:105180004D8D5E8D21966CAD7DAD8EAD9FAD219721
:105190000E947A399B01AC01C501B4010E942236FC
:1051A0002B013C012F8D2F5F2F8F470156018B8ED6
:1051B0009C8EAD8EBE8EA30192016DA57EA58FA59E
:1051C00098A90E942336EFA1F8A56083718382839A
:1051D00093832B8D3C8D4D8D5E8D69A97AA98BA90A
:1051E0009CA90E942336A9ADBAAD6D937D938D9392
:1051F0009C93139729962CAD3DAD4EAD5FAD29978D
:10520000F80160817181828193810E942336D801E7
:105210006D937D938D939C931397BE01635F7F4F36
:1052200083EA96E00E94651C8091560781116ACD41
:10523000BFEF2B1A3B0A6CCF2DEB37E346E055E36B
:10524000C701B6010E94183718160CF4A1CE2BED39
:105250003FE049EC50E4C701B6010E94233696CEE8
:10526000B10190E080E00E94CA372BA13CA14DA182
:105270005EA10E947A396B017C010E941D376B8F01
:105280007C8F8D8F9E8FC701B6010E940B3A4B0118
:105290005C01A9A5BAA5CD90DD90ED90FC90F7FA40
:1052A000F094F7F8F094ABADBCAD8D919D910D905D
:1052B000BC91A02D8F8F98A3A9A3BAA3A701960193
:1052C0006B8D7C8D8D8D9E8D0E947A392B013C01DA
:1052D0002F8D38A149A15AA1C501B4010E947A3984
:1052E0009B01AC01C301B2010E9423362B013C019A
:1052F000A7019601C501B4010E947A396B017C01B6
:105300002F8D38A149A15AA16B8D7C8D8D8D9E8DDD
:105310000E947A399B01AC01C701B6010E94223676
:105320006B8F7C8F8D8F9E8F1F8E45CF8D89846074
:105330008D8B80915507823009F4E4CC0E94CD1802
:1053400080915607811119C0FBA1F071FF2E1092B8
:105350005A072BA123FB882780F90E94D80386B126
:10536000807290911C06891719F184E00E94440212
:105370000E94C71780E00E94D8038091D3068093D3
:105380009206882311F40C94161E0E94CD18809169
:10539000920690915507833009F04DC0923029F064
:1053A00088E00E9454020E94C71710929206EDC82E
:1053B000B80189EF96E00E94651C81E08093350674
:1053C00082E00E9454020E94C71780915607811103
:1053D000D4CF809155078111F6CF80913506813069
:1053E00031F5FF2001F18CE0EDE1F6E0A9E2B6E055
:1053F00001900D928A95E1F71092350680E00E94A7
:10540000D8030E94C7170E94FE120E94EB090E9457
:1054100083060E94590680915A07882309F472CCAA
:105420000E943309AACF85E00E944402E5CF81E0C3
:1054300080935A07E1CF81E080938B0610928F060C
:1054400010928E0610928C0610929106109294067D
:105450001092930684E680935D0780935E078093A5
:105460005F07923099F06FEA76E080E00E9436198B
:10547000882311F40C94B9200E94FF1840E050E0FA
:10548000BA0180E00E94070B0E947E018EEC92E040
:105490000E94EE0485E692E00E94EE040E9454060B
:1054A00084CF81E00C94161E82E00C94161E88E1D5
:1054B0000C94161E86E20C94161E89E10C94161E9E
:1054C00084E00C94161E8BE10C94161E85E20C945D
:1054D000161E80E20C94161E82E20C94161E84E2C4
:1054E0000C94161E80E10C94161E8FE00C94161E70
:1054F000CF93DF93C0E08C2F0E94DE18811114C07F
:10550000109205078EE30E94AF030E94CB038AE34B
:105510000E94AF0387E00E940005C13019F4DF91BB
:10552000CF910895C1E0E7CF809105078823A9F3C3
:105530000E94C51CD82F8EE30E94AF030E94CB03AC
:105540008AE30E94AF038D2F0E940C05E6CF2F92B5
:105550003F924F925F926F927F928F929F92AF9203
:10556000BF92CF92DF92EF92FF920F931F93CF9350
:10557000DF93CDB7DEB7A7970FB6F894DEBF0FBEA7
:10558000CDBF90915607911125C2FE013D9699E03D
:10559000DF011D929A95E9F796E09D8BE82FF0E0E8
:1055A000FA8FE98FF82FF1703F2E10E0E1E080FDD7
:1055B00002C0E0E011E08F8FF0E03996EE0FFF1FA0
:1055C000EE0FFF1FEA5CF94F2DEC3CEC4CE45DEB79
:1055D00060817181828193810E947A396B017C01A3
:1055E00020E030E048EC51E40E94183787FFC5C046
:1055F00020E030E040E250E4C701B6010E943A39B1
:1056000018160CF0C1C0E12FF0E0EE0FFF1FEE0FF7
:10561000FF1FEA5CF94F2081318142815381C7012C
:10562000B6010E947A390E9494376AA37BA38CA3A7
:105630009DA346E3A42E46E0B42E9E012A5E3F4F72
:10564000490110E000E0C12CD12C7601802F94E0BC
:10565000002321F090E0013009F498E0D4019D93FB
:105660004D01E98DFA8D02C0F595E7958A95E2F72F
:10567000E0FF17C020E030E040EC5FEBD5019496EE
:105680006D917D918D919C9197970E947A392B0114
:105690003C01A70196010E94183787FD02C06201F4
:1056A00073010F5F1F4FB4E0AB0EB11C0330110547
:1056B00069F6311070C0EF8DE13009F472C06624D4
:1056C000639477247394F0E8FB8F80908106909028
:1056D0008206A0908306B090840634E03C8F01E0FF
:1056E000872D90E0880F991F880F991FAC01435EAA
:1056F000594F5E8F4D8F6DE176E0CE0101960E948D
:10570000BC0210925C0780917C06A82FB0E0B9A380
:10571000A8A3AE014F5F5F4F8DE1482E86E0582E63
:105720005FA24EA270E060E010E0312C212CD70186
:10573000C601B058298D3A8D022C02C035952795A7
:105740000A94E2F720FF45C06F5FEEA1FFA110822F
:1057500011821282138228A139A1022C02C0359530
:1057600027950A94E2F7FA0120FF1FC00023F9F001
:1057700080839183A283B3831EC0C12CD12C68EC9B
:10578000E62E61E4F62E3FCFC12CD12C50E2E52E5F
:1057900050E4F52E38CF712C6624639420E12B8FD2
:1057A00094CF712C1B8E612C90CF002309F3C08203
:1057B000D182E282F38226E130E02C0F3D1F220DE0
:1057C000331DF9012081122B662019F0721001C0DF
:1057D0007B8DFFEF2F1A3F0A4C5F5F4F2EA13FA139
:1057E0002C5F3F4F3FA32EA333E02316310409F073
:1057F000A1CF70935C0770E090E080E00E94CA3710
:105800000E94193A10935B07A50194010E947A390E
:105810006D877E878F87988BBE01635F7F4FCE0138
:1058200001960E94B41944E0409359070E942D0B41
:105830000E945603B12CC12CD12C7601002371F1AA
:105840000E94F108FE01769630E020E0482F50E0FB
:105850009191692F612389F0BA01022E02C07595DA
:1058600067950A94E2F760FF08C0909519236620B7
:1058700021F0721202C06894B1F82F5F3F4F2330BD
:10588000310531F710935B0790915C07992321F064
:10589000711071C083FD71C0B11073C00E942D0BD7
:1058A00080911806847309F4B9C01091180614FF8A
:1058B00003C086E00E94440215FF03C087E00E94F7
:1058C00044020111C4C00E94F108BF8D8B2319F05E
:1058D00088E00E94440280911906811177C084E01B
:1058E0000E944A020E94FE128091850690918606CF
:1058F000019708F09CC081E00827C0908706D090EF
:105900008806E0908906F0908A06002309F496C084
:1059100020E030E040EA50E4C701B6010E947A3945
:105920006B017C0180907D0690907E06A0907F06A2
:10593000B09080062C8D21502C8F2111DCCE90E070
:1059400080E0298D3A8D082E02C0359527950A945E
:10595000E2F720FF06C0D2011D921D921D921C92FB
:1059600013970196B4E04B0E511C8330910549F713
:10597000109259072FC084FF8FCF10925C07689454
:10598000B2F8B0FE40C08B2D8670863009F444C05A
:10599000AD8DBE8D8D919C91F601E81BF90BCF0169
:1059A000F7FF03C0919581959109092E000CAA0B70
:1059B000BB0B2AA13BA14CA15DA1281739074A07BF
:1059C0005B070CF06BCF8AE00E9444020E944013F8
:1059D0000E94C717A7960FB6F894DEBF0FBECDBFC3
:1059E000DF91CF911F910F91FF90EF90DF90CF90BB
:1059F000BF90AF909F908F907F906F905F904F90EF
:105A00003F902F9008956894B0F8AD8DBE8DCD90E5
:105A1000DD90ED90FC9042CFB12C40CF812F8C7067
:105A200009F00CCF80915C07811108CF5BCFEFE9C3
:105A3000FFE03197F1F700C000005ACF8090810657
:105A400090908206A0908306B090840673CF12FFD8
:105A500042CF89E03ECF1F920F920FB60F921124D2
:105A60002F933F934F935F936F937F938F939F9366
:105A7000AF93BF93CF93EF93FF930E94F802C82F89
:105A8000882389F080FD0E944013C2FF05C08091E9
:105A90001806826080931806C1FF05C08091180621
:105AA000886080931806FF91EF91CF91BF91AF91DD
:105AB0009F918F917F916F915F914F913F912F9126
:105AC0000F900FBE0F901F9018951F920F920FB658
:105AD0000F9211248F939F939BB1809111028C7030
